:020000040000FA
:040000000BEF07F00B
:0800080003EF06F0D3508F0B4B
:100010007009D36E010EF0EC03F00F0EC16E939ECB
:10002000939C939A9398939692909292929492968C
:100030009298929A969096929694959E959C819E6F
:10004000819C819A819881968090809280948096FC
:100050008098809A849084928494839E839C959ABD
:1000600095989596959495929590839A8398839672
:10007000839483928390929C809C949094928280AB
:100080008282949A9488949694948284C68AC6981C
:10009000C690C79EC78CC69E9D86000EE56E640EF8
:1000A000E56E03EC04F0020EE1268290000EE56E90
:1000B0000A0EE56E03EC04F0020EE1268280000ECB
:1000C000E56E640EE56E03EC04F0020EE126000E10
:1000D000E56E000EE56E5EEC06F0020EE126000E07
:1000E000E56E640EE56E03EC04F0020EE126280EC8
:1000F000E56E800EE56E5EEC06F0020EE126090E5E
:10010000E56E820EE56E5EEC06F0020EE126820ED2
:10011000E56ECA0EE56E5EEC06F0020EE126A50E57
:10012000E56ECE0EE56E5EEC06F0020EE126D59C85
:10013000D59AD596D580D582D584D59EF294F28A6B
:10014000F28E050EE56E34EC06F0E12A010E000198
:10015000816FC9EC06F081B0FED72D0EE56EB80EAA
:10016000E56E5EEC06F0020EE12681B0FED7A50E2C
:10017000E56EB80EE56E5EEC06F0020EE12681B08B
:10018000FED75A0EE56EB80EE56E5EEC06F0020E76
:10019000E12681B0FED700018151E56EB80EE56E13
:1001A0005EEC06F0020EE12681B0FED7EF0EE56EA2
:1001B000B80EE56E5EEC06F0020EE12681B0FED7C9
:1001C000B2EC06F00001826BE0EC06F00001A06BDF
:1001D000D58EF00ED76ED66A060E0001825DD870FD
:1001E000006A00360001A051D880E866D890016A04
:1001F00001360150001600502CE0006A81B4002A3C
:100200000050D880E866D890006A00360001A051FE
:10021000D880E866D890016A013601500016005077
:10022000ECE1829282C000F00001822B016A940E00
:100230000026000E0122000EE56EF7EC06F0026EBD
:10024000E12A00C0E9FF01C0EAFF02C0EFFF82829D
:10025000C3D7D59EB2EC06F00001A05103E0000127
:10026000A06B808C000194515A0A01E008D1000172
:10027000806B010E0001826F050E0001825D13E2AA
:10028000940E00018225006E016A000E012200C05A
:10029000E9FF01C0EAFFEFCF00F000500001802726
:1002A0000001822BE9D7000180510001991901E07A
:1002B000E6D0808C010E0001815DD8A0DFD0050E54
:1002C0000001815DD8B0DAD000018105006E03C065
:1002D000E5FF04C0E5FF046A00340436E834043660
:1002E000FC0B036E000EFB6E030EFA6E040E03266B
:1002F0000450FA22D8B0FB2A0350E4CF04F0E4CF34
:1003000003F0F96E8AEF01F0B7EF01F0E4EF01F0CE
:1003100011EF02F00001826B040E0001825D27E202
:10032000830E00018225006E016A000E012200C0CA
:10033000E9FF01C0EAFFEFCF02F000018229036E5E
:10034000940E0324046E056A000E052204C0E9FF22
:1003500005C0EAFFEFCF04F00450022600C0E9FF19
:1003600001C0EAFF02C0EFFF03C082F0D5D7000151
:10037000826B040E0001825D27E2870E0001822558
:10038000006E016A000E012200C0E9FF01C0EAFF11
:10039000EFCF02F000018229036E940E0324046E55
:1003A000056A000E052204C0E9FF05C0EAFFEFCF91
:1003B00004F00450022600C0E9FF01C0EAFF02C0B9
:1003C000EFFF03C082F0D5D70001826B040E00015D
:1003D000825D27E28B0E00018225006E016A000E0D
:1003E000012200C0E9FF01C0EAFFEFCF02F00001E7
:1003F0008229036E940E0324046E056A000E052202
:1004000004C0E9FF05C0EAFFEFCF04F00450022664
:1004100000C0E9FF01C0EAFF02C0EFFF03C082F0A5
:10042000D5D70001826B040E0001825D27E28F0E9A
:1004300000018225006E016A000E012200C0E9FF62
:1004400001C0EAFFEFCF02F000018229036E940E93
:100450000324046E056A000E052204C0E9FF05C0EE
:10046000EAFFEFCF04F00450022600C0E9FF01C00C
:10047000EAFF02C0EFFF03C082F0D5D7809C0001E5
:10048000835112E0808C818E000EE56E010EE56EC8
:1004900003EC04F0020EE126819E83C000F000060A
:1004A00000500001836F809C0001845112E0808C19
:1004B000818C000EE56E010EE56E03EC04F0020E79
:1004C000E126819C84C000F0000600500001846F8A
:1004D000809C0001855112E0808C818A000EE56EBF
:1004E000010EE56E03EC04F0020EE126819A85C050
:1004F00000F0000600500001856F809C00018651CD
:1005000012E0808C8188000EE56E010EE56E03EC32
:1005100004F0020EE126819886C000F0000600502B
:100520000001866F809C0001875112E0808C8186DB
:10053000000EE56E010EE56E03EC04F0020EE126FE
:10054000819687C000F0000600500001876F809CF4
:100550000001885112E0808C8080000EE56E010E53
:10056000E56E03EC04F0020EE126809088C000F0F6
:10057000000600500001886F809C0001895112E044
:10058000808C8082000EE56E010EE56E03EC04F0B7
:10059000020EE126809289C000F0000600500001A2
:1005A000896F809C00018A5112E0808C8084000E4B
:1005B000E56E010EE56E03EC04F0020EE126809478
:1005C0008AC000F00006005000018A6F809C000184
:1005D0008B5112E0808C8086000EE56E010EE56E78
:1005E00003EC04F0020EE12680968BC000F00006BA
:1005F000005000018B6F809C00018C5112E0808CB8
:100600008088000EE56E010EE56E03EC04F0020E2C
:10061000E12680988CC000F00006005000018C6F2D
:10062000809C00018D5112E0808C808A000EE56E66
:10063000010EE56E03EC04F0020EE126809A8DC0F7
:1006400000F00006005000018D6F809C00018E516B
:1006500012E0808C8480000EE56E010EE56E03ECE6
:1006600004F0020EE12684908EC000F000060050D7
:1006700000018E6F809C00018F5112E0808C84827B
:10068000000EE56E010EE56E03EC04F0020EE126AD
:1006900084928FC000F00006005000018F6F809C94
:1006A0000001905112E0808C8484000EE56E010EF2
:1006B000E56E03EC04F0020EE126849490C000F095
:1006C000000600500001906F809C0001915112E0E3
:1006D000808C838E000EE56E010EE56E03EC04F057
:1006E000020EE126839E91C000F00006005000013A
:1006F000916F809C0001925112E0808C838C000EDF
:10070000E56E010EE56E03EC04F0020EE126839C1B
:1007100092C000F0000600500001926F809C000122
:10072000946B030E000181170001812BA9EF00F0EB
:100730001200E806E56E630EB8EC03F0630EDDEC24
:1007400003F0090ED1EC03F0E45011E000D0E56EA7
:10075000630EB8EC03F0630EDDEC03F0090ED1EC90
:1007600003F000D000D00000E450E82EF0D71200D3
:10077000E806E56E090EF0EC03F0630ED1EC03F031
:10078000E4500EE000D0E56E090EF0EC03F0630ECD
:10079000D1EC03F000D000D00000E450E82EF3D7F5
:1007A0001200E8060000E85007E000D000D000D0BA
:1007B00000D00000E82EFAD71200E806E56E090E18
:1007C000D1EC03F0E4500BE000D0E56E090ED1EC63
:1007D00003F000D0E450000000D0E82EF6D712005D
:1007E000E806E56E630ED1EC03F0E4500BE000D0B8
:1007F000E56E630ED1EC03F000D000D00000E450B1
:10080000E82EF6D71200D9CFE5FFE1CFD9FF00C01F
:10081000E5FF01C0E5FF02C0E5FF03C0E5FF04C03E
:10082000E5FF05C0E5FF020EDBCF00F0030EDBCFD6
:1008300001F00150E56E0050E56E000EE56E020E0F
:10084000E56E18EC05F0006EF3CF01F0040EE12622
:10085000000EE56EFF0EE56E0150E56E0050E56E90
:10086000C3EC04F0026EF3CF03F0040EE126000E99
:10087000E56EFF0EE56E0150E56E0050E56E67EC2B
:1008800004F0006EF3CF01F0040EE126046A056A5D
:100890000350055C02E10250045C07E2FF0EF0EC3D
:1008A00003F0042AD8B0052AF3D70050F0EC03F087
:1008B000E4CF05F0E4CF04F0E4CF03F0E4CF02F09E
:1008C000E4CF01F0E4CF00F0E4CFD9FF1200D9CF9C
:1008D000E5FFE1CFD9FF00C0E5FF01C0E5FF02C0A1
:1008E000E5FF03C0E5FF04C0E5FF05C0E5FF06C066
:1008F000E5FF020EDBCF00F0030EDBCF01F0040EAC
:10090000DBCF02F0050EDBCF03F0046A056A034477
:10091000010B066E06B011D00250022603360350BA
:10092000015C02E10250005C04E2D8900332023222
:1009300004D0052A05C004F0EAD70350015C02E1A7
:100940000250005C04E30250005E0350015AD8904C
:100950000332023204C005F004060550EEE101C086
:10096000F3FF0050E4CF06F0E4CF05F0E4CF04F04D
:10097000E4CF03F0E4CF02F0E4CF01F0E4CF00F0E5
:10098000E4CFD9FF1200D9CFE5FFE1CFD9FF00C0F6
:10099000E5FF01C0E5FF02C0E5FF03C0E5FF04C0BD
:1009A000E5FF05C0E5FF06C0E5FF07C0E5FF020E55
:1009B000DBCF00F0030EDBCF01F0040EDBCF02F043
:1009C000050EDBCF03F0046A056A100E066E0144C3
:1009D000010B076E010E0716005000260136045069
:1009E000042605360750D8A404800350055C02E1B4
:1009F0000250045C05E30250045E0350055A008077
:100A0000062EE5D701C0F3FF0050E4CF07F0E4CF96
:100A100006F0E4CF05F0E4CF04F0E4CF03F0E4CF38
:100A200002F0E4CF01F0E4CF00F0E4CFD9FF1200F0
:100A3000D9CFE5FFE1CFD9FF00C0E5FF01C0E5FF59
:100A400002C0E5FF03C0E5FF020EDBCF00F0030E9E
:100A5000DBCF01F0040EDBCF02F0050EDBCF03F09D
:100A6000005000019A6F01509B6F025000019C6F73
:100A700003509D6F00019A5100019C03F3CF00F0D9
:100A8000F4CF01F0005000019E6F01509F6F0001F4
:100A90009A5100019D03F3CF00F000019B5100012A
:100AA0009C03F3CF01F00150002600019F51002666
:100AB00000509F6F9FC0F3FF9E51E4CF03F0E4CF3F
:100AC00002F0E4CF01F0E4CF00F0E4CFD9FF120050
:100AD000D9CFE5FFE1CFD9FF00C0E5FF01C0E5FFB9
:100AE00002C0E5FF03C0E5FF04C0E5FF020EDBCF57
:100AF00000F0030EDBCF01F0040EDBCF02F0050E99
:100B0000DBCF03F0060EDBCF04F082940050E56EDD
:100B1000F7EC06F0006EE12A00C0E5FF02C0E9FF35
:100B200003C0F3FF045021EC07F0022AD8B0032AD7
:100B3000D8B0042A0150E56EF7EC06F0006EE12A09
:100B400000C0E5FF02C0E9FF03C0F3FF045021EC41
:100B500007F08284E4CF04F0E4CF03F0E4CF02F0A6
:100B6000E4CF01F0E4CF00F0E4CFD9FF1200560E3D
:100B7000F66E0E0EF76E000EF86E0900F550056E5B
:100B80000900F550066E055002E106503BE00900F1
:100B9000F550006E0900F550016E0900F550026E27
:100BA00009000900F550E96E0900F550EA6E0900E8
:100BB00009000900F550036E0900F550046E0900A4
:100BC0000900F6CF07F0F7CF08F0F8CF09F000C022
:100BD000F6FF01C0F7FF02C0F8FF035002E1045026
:100BE00007E00900F550EE6E0306F8E20406F9D7B7
:100BF00007C0F6FF08C0F7FF09C0F8FF0506C4E20A
:100C00000606C5D71200E8CFE5FFD8CFE5FFE0CF55
:100C1000E5FFF3CFE5FFF4CFE5FFE9CFE5FFEACF4E
:100C2000E5FFFACFE5FFFBCFE5FFD9CFE5FFE1CF49
:100C3000D9FFF29A010E0001A06FF294F28AE4CF7C
:100C4000D9FFE4CFFBFFE4CFFAFFE4CFEAFFE4CF24
:100C5000E9FFE4CFF4FFE4CFF3FFE4CFE0FFE4CF1C
:100C6000D8FFE4CFE8FF1000D9CFE5FFE1CFD9FFEF
:100C700000C0E5FF01C0E5FF020EDBCF00F0016A16
:100C80000050015C14E2808C000EE56E320EE56EC1
:100C900003EC04F0020EE126809C000EE56E320E9D
:100CA000E56E03EC04F0020EE126012AE9D7E4CF59
:100CB00001F0E4CF00F0E4CFD9FF1200D9CFE5FF77
:100CC000E1CFD9FF00C0E5FF01C0E5FF020EDBCF99
:100CD00000F0030EDBCF01F082940050E56EF7ECDC
:100CE00006F0E12A0150E56EF7EC06F0E12A828475
:100CF000E4CF01F0E4CF00F0E4CFD9FF1200D9CF68
:100D0000E5FFE1CFD9FF00C0E5FF01C0E5FF020E1E
:100D1000DBCF00F0030EDBCF01F0D890003600509F
:100D200099EC03F0E4CF01F0E4CF00F0E4CFD9FF79
:100D30001200D9CFE5FFE1CFD9FF00C0E5FF01C028
:100D4000E5FF020EDBCF00F0016A0050015C03E218
:100D50000000012AFAD7E4CF01F0E4CF00F0E4CF9D
:100D6000D9FF1200D9CFE5FFE1CFD9FF590EE56ECB
:100D7000820EE56E5EEC06F0020EE126280EE56EB0
:100D8000800EE56E5EEC06F0020EE126E4CFD9FFA0
:100D90001200D9CFE5FFE1CFD9FFD80EE56E800E66
:100DA000E56E5EEC06F0020EE126390EE56E820E6F
:100DB000E56E5EEC06F0020EE126E4CFD9FF1200EC
:100DC000D9CFE5FFE1CFD9FF680EE56E800EE56E65
:100DD0005EEC06F0020EE126D90EE56E820EE56E9F
:100DE0005EEC06F0020EE126E4CFD9FF1200D9CF67
:100DF000E5FFE1CFD9FF00C0E5FF020EDBCFC9FF61
:100E00009EA6FED7C9CF00F09E960050E4CF00F01A
:100E1000E4CFD9FF120017EEFFF027EEFFF0F86ADB
:100E2000A68EA69CB7EC05F006EC00F0FFD70001FB
:100E300000000000000000000000000000000000B2
:100E40000000E8AE05D0F3CFEAFFE4CFEEFF1200DA
:100E5000E8AC1200120001002E0E0000800000001D
:040E6000140000007A
:020000040030CA
:0E000000FFB8F9FEFF7D81FFFFFFFFFFFFFF4E
:00000001FF
