:020000040000FA
:04000000FEEF08F017
:08000800B4EF03F0D9CFE5FFCE
:10001000E1CFD9FF00C0E5FF01C0E5FF02C0E5FF69
:1000200003C0E5FF04C0E5FF05C0E5FF06C0E5FF2E
:1000300007C0E5FF020EDBCF00F0030EDBCF01F0BF
:10004000040EDBCF02F0050EDBCF03F0060EDBCF94
:1000500004F0070EDBCF05F0080EDBCF06F0090E2B
:10006000DBCF07F00001A26BA36BA46BA56B005064
:100070000001A66F0150A76F0250A86F0350A96F2F
:1000800004500001AA6F0550AB6F0650AC6F0750CB
:10009000AD6F0001A651A711A811A91109E1ADC0CA
:1000A000E9FFACC0F4FFABC0F3FF0001AA5195D14A
:1000B0000001AA51AB11AC11AD1109E1A9C0E9FFD2
:1000C000A8C0F4FFA7C0F3FF0001A65186D100012C
:1000D000A835A935006E016A0136026A036A016A11
:1000E000026A036A00500001BE6F0150BF6F000139
:1000F000AC35AD350001C06FC16BC051190F006E3A
:10010000000EC121800FF36E0001BF51800FF35C20
:1001100002E1BE51005C09E2A9C0E9FFA8C0F4FFFA
:10012000A7C0F3FF0001A65158D10001BE51190F1D
:10013000006E000EBF21800FF36E0001C151800FD1
:10014000F35C02E1C051005C09E2ADC0E9FFACC064
:10015000F4FFABC0F3FF0001AA513FD10001A6514B
:10016000006EA751016E7F0EA815026E00500001AF
:10017000AE6F0150AF6F800E0210B06FB16B000117
:10018000AA51006EAB51016E7F0EAC15026E00508D
:100190000001B26F0150B36F800E0210B46FB56BE7
:1001A0000001A945010B006E00A00BD00001B11F9A
:1001B000B01FAF1FAE6D05E1AF2B03E1B02B01E126
:1001C000B12B0001AD45010B006E00A00BD000016A
:1001D000B51FB41FB31FB26D05E1B32B03E1B42B00
:1001E00001E1B52B0001C151800FF36E0001BF5139
:1001F000800FF35C03E1BE510001C05D21E200010C
:10020000C0510001BE5D006E0001C1510001BF5927
:10021000005015E00CE6E86CD8900001B5BFD8801E
:10022000B533B433B333B233010FF7E32DD0D890E5
:100230000001B237B337B437B537010FF9E324D033
:100240000001BE510001C05D006E0001BF51000100
:10025000C159005015E00CE6E86CD8900001B1BF20
:10026000D880B133B033AF33AE33010FF7E308D0EA
:10027000D8900001AE37AF37B037B137010FF9E38F
:10028000C0C0BEF0C1C0BFF00001B2510001AE2736
:100290000001B3510001AF230001B4510001B023AC
:1002A0000001B5510001B123D880B1AFD89011E35E
:1002B000B11FB01FAF1FAE6D05E1AF2B03E1B02B37
:1002C00001E1B12B0001A26BA36BA46B800EA56FA3
:1002D0000BD00001AE51AF11B011B11105E1E96AC7
:1002E000F46AF36AE86A79D0AEC000F0AFC001F0FA
:1002F000B0C002F0B1C003F0000E035C08E1800E54
:10030000025C05E1000E015C02E1000E005C0CE203
:100310000001AE51AE27AF37B037B137FF0E000145
:10032000BE2701E2BF07E0D7AEC000F0AFC001F0CA
:10033000B0C002F0B1C003F0035014E00001AEA160
:1003400006D0020EAE27000EAF23B023B12300016A
:10035000B135B133B033AF33AE330001BE2B01E35F
:10036000BF2BE2D70001B09FBEC000F0BFC001F0BC
:10037000E86A01300030076E066A0632046A056AD0
:1003800004500001A211006E0550A311016E065029
:10039000A411026E0750A511036EAEC004F0AFC0E9
:1003A00005F0B0C006F0B1C007F0045000120550CF
:1003B0000112065002120750031200500001A66FEE
:1003C0000150A76F0250A86F0350A96FA9C0E9FFA1
:1003D000A8C0F4FFA7C0F3FFA651E4CF07F0E4CF15
:1003E00006F0E4CF05F0E4CF04F0E4CF03F0E4CF6F
:1003F00002F0E4CF01F0E4CF00F0E4CFD9FF120027
:10040000D3508F0B7009D36E929C809C959C839CDB
:10041000FF0E816E936AFF0E936EF19E94909492FC
:10042000948482808282F290F286F180F28E949A95
:100430009488949694948284C68AC698C690C79EDF
:10044000C78CC69E9D86000EE56E640EE56E1BECA5
:1004500006F0020EE1268290000EE56E050EE56EB6
:100460001BEC06F0020EE1268280000EE56EC80E3F
:10047000E56E1BEC06F0020EE126000EE56E000EA6
:10048000E56E45EC08F0020EE126000EE56E640E06
:10049000E56E1BEC06F0020EE126280EE56E800EDE
:1004A000E56E45EC08F0020EE126090EE56E820EBF
:1004B000E56E45EC08F0020EE126820EE56ECA0EEE
:1004C000E56E45EC08F0020EE126A50EE56ECE0EB7
:1004D000E56E45EC08F0020EE126050EE56E1BEC1C
:1004E00008F0E12A0001B66B0001B76B0001846BD4
:1004F000C7EC08F000018E6BF00E00018F6F7F0ECD
:100500000001906F450E0001916F020E0001845DA5
:10051000D870006A0036000EE56E000EE56E000E23
:10052000E56E000EE56E00019151E56E00019051FF
:10053000E56E00018F51E56E00018E51E56E21ECF4
:1005400005F0016E080EE126015000160050D8B4E7
:100550005FD0006A81B4002A0050D880E866D89045
:10056000006A0036000EE56E000EE56E000EE56EC8
:10057000000EE56E00019151E56E00019051E56EAF
:1005800000018F51E56E00018E51E56E21EC05F002
:10059000016E080EE12601500016005021E03F0ECA
:1005A000E56E800EE56E000EE56E000EE56E000154
:1005B0009151E56E00019051E56E00018F51E56E9D
:1005C00000018E51E56E77EC04F000018E6FF3CFE1
:1005D0008FF0F4CF90F0E9CF91F0080EE126B9D773
:1005E000829284C000F00001842B016AB60E0026BE
:1005F000000E0122000EE56EDEEC08F0026EE12A2C
:1006000000C0E9FF01C0EAFF02C0EFFF82827DD790
:1006100099EC08F000018E5100018F11000190113A
:100620000001911101E1808C006A0001B6515A0A63
:1006300001E1002A016A0001B751020A01E1012A21
:10064000015000160050D8B44DD7808C0001805165
:100650000001886F000181510001896F0001825102
:1006600000018A6F0001835100018B6FB0EC08F02C
:100670000001846B0001856B81B0FED72D0EE56E05
:10068000B80EE56E45EC08F0020EE12681B0FED70B
:10069000A50EE56EB80EE56E45EC08F0020EE126FB
:1006A00081B0FED75A0EE56EB80EE56E45EC08F047
:1006B000020EE126040E0001845D2AE2880E00018C
:1006C0008425006E016A000E012200C0E9FF01C00E
:1006D000EAFFEFCF00F000500001852781B0FED780
:1006E00084C000F00001842B016A880E0026000EF1
:1006F000012200C0E9FF01C0EAFFEFCF00F0005087
:10070000E56EB80EE56E45EC08F0020EE126D2D794
:1007100081B0FED700018551E56EB80EE56E45EC5F
:1007200008F0020EE12681B0FED7EF0EE56EB80E9E
:10073000E56E45EC08F0020EE12681B0FED799EC9B
:1007400008F0000188510001805F0001895100011B
:10075000815F00018A510001825F00018B5100011D
:10076000835F809CBFD61200E8CFE5FFD8CFE5FFBE
:10077000E0CFE5FFF3CFE5FFF4CFE5FFE9CFE5FFFD
:10078000EACFE5FFFACFE5FFFBCFE5FFD9CFE5FFE5
:10079000E1CFD9FF00C0E5FF01C0E5FFF296006A96
:1007A00081BE002A0050D880E866D890006A0036E2
:1007B000016A000186B1012A01500016005005E0CF
:1007C0000001802B000186910CD0006A81BE002AB6
:1007D0000050010BF46E00018651FE0BF410000175
:1007E000866F006A81BC002A0050D880E866D890E5
:1007F000006A0036016A000186B3012A0150001622
:10080000005005E00001812B000186930DD0006AA5
:1008100081BC002A0050010BE844F46E00018651AF
:10082000FD0BF4100001866F006A81BA002A0050A7
:10083000D880E866D890006A0036016A000186B563
:10084000012A01500016005005E00001822B000132
:1008500086950ED0006A81BA002A0050010BE84448
:10086000E844F46E00018651FB0BF4100001866F22
:10087000006A81B8002A0050D880E866D890006AE3
:100880000036016A000186B7012A015000160050A7
:1008900005E00001832B000186970ED0006A81B825
:1008A000002A0050010BE838E840F46E0001865140
:1008B000F70BF4100001866FF290F286E4CF01F09E
:1008C000E4CF00F0E4CFD9FFE4CFFBFFE4CFFAFFA1
:1008D000E4CFEAFFE4CFE9FFE4CFF4FFE4CFF3FF96
:1008E000E4CFE0FFE4CFD8FFE4CFE8FF1000D9CF9A
:1008F000E5FFE1CFD9FF00C0E5FF01C0E5FF02C081
:10090000E5FF03C0E5FF04C0E5FF05C0E5FF06C045
:10091000E5FF07C0E5FF020EDBCF00F0030EDBCFE3
:1009200001F0040EDBCF02F0050EDBCF03F0060E64
:10093000DBCF04F0070EDBCF05F0080EDBCF06F0AF
:10094000090EDBCF07F0005000019A6F01509B6F3A
:1009500002509C6F03509D6F045000019E6F055024
:100960009F6F0650A06F0750A16F9E519F11A0115D
:10097000A11109E19DC0E9FF9CC0F4FF9BC0F3FFFA
:1009800000019A514BD000019A519B119C119D116D
:1009900011E19EC000F09FC001F0A0C002F0A1C014
:1009A00003F0037E03C0E9FF02C0F4FF01C0F3FFC0
:1009B000005034D000019E51006E9F51016EA05135
:1009C000026E800EA119036E00509E6F01509F6F42
:1009D0000250A06F0350A16FE56EA051E56E9F51CC
:1009E000E56E9E51E56E00019D51E56E9C51E56EF0
:1009F0009B51E56E9A51E56E06EC00F0006EF3CF68
:100A000001F0F4CF02F0E9CF03F0080EE12603C0B5
:100A1000E9FF02C0F4FF01C0F3FF0050E4CF07F08C
:100A2000E4CF06F0E4CF05F0E4CF04F0E4CF03F028
:100A3000E4CF02F0E4CF01F0E4CF00F0E4CFD9FF3F
:100A40001200D9CFE5FFE1CFD9FF00C0E5FF01C01B
:100A5000E5FF02C0E5FF03C0E5FF04C0E5FF05C0F8
:100A6000E5FF06C0E5FF07C0E5FF020EDBCF00F0A3
:100A7000030EDBCF01F0040EDBCF02F0050EDBCF5F
:100A800003F0060EDBCF04F0070EDBCF05F0080EF7
:100A9000DBCF06F0090EDBCF07F000500001926FAC
:100AA0000150936F0250946F0350956F04500001F2
:100AB000966F0550976F0650986F0750996FD880C2
:100AC000000195AFD89020E3D880000199AFD8906D
:100AD0001BE300019551800FF36E00019951800FC7
:100AE000F35C0DE198510001945D09E1000197511B
:100AF0000001935D04E1000196510001925D02E264
:100B0000010E1CD0E86A1AD000019951800FF36ED3
:100B100000019551800FF35C0DE194510001985D47
:100B200009E1000193510001975D04E10001925138
:100B30000001965D02E2010E01D0E86AE4CF07F001
:100B4000E4CF06F0E4CF05F0E4CF04F0E4CF03F007
:100B5000E4CF02F0E4CF01F0E4CF00F0E4CFD9FF1E
:100B60001200E806E56E630ED0EC05F0630EF5ECBE
:100B700005F0090EE9EC05F0E45011E000D0E56E57
:100B8000630ED0EC05F0630EF5EC05F0090EE9EC10
:100B900005F000D000D00000E450E82EF0D712009D
:100BA000E806E56E090E08EC06F0630EE9EC05F0C8
:100BB000E4500EE000D0E56E090E08EC06F0630E7E
:100BC000E9EC05F000D000D00000E450E82EF3D7A7
:100BD0001200E8060000E85007E000D000D000D086
:100BE00000D00000E82EFAD71200E806E56E090EE4
:100BF000E9EC05F0E4500BE000D0E56E090EE9ECFD
:100C000005F000D0E450000000D0E82EF6D7120026
:100C1000E806E56E630EE9EC05F0E4500BE000D069
:100C2000E56E630EE9EC05F000D000D00000E45062
:100C3000E82EF6D71200D9CFE5FFE1CFD9FF00C0EB
:100C4000E5FF01C0E5FF02C0E5FF03C0E5FF04C00A
:100C5000E5FF05C0E5FF020EDBCF00F0030EDBCFA2
:100C600001F00150E56E0050E56E000EE56E020EDB
:100C7000E56E30EC07F0006EF3CF01F0040EE126D4
:100C8000000EE56EFF0EE56E0150E56E0050E56E5C
:100C9000DBEC06F0026EF3CF03F0040EE126000E4B
:100CA000E56EFF0EE56E0150E56E0050E56E7FECDF
:100CB00006F0006EF3CF01F0040EE126046A056A27
:100CC0000350055C02E10250045C07E2FF0E08ECF1
:100CD00006F0042AD8B0052AF3D7005008EC06F035
:100CE000E4CF05F0E4CF04F0E4CF03F0E4CF02F06A
:100CF000E4CF01F0E4CF00F0E4CFD9FF1200D9CF68
:100D0000E5FFE1CFD9FF00C0E5FF01C0E5FF02C06C
:100D1000E5FF03C0E5FF04C0E5FF05C0E5FF06C031
:100D2000E5FF020EDBCF00F0030EDBCF01F0040E77
:100D3000DBCF02F0050EDBCF03F0046A056A034443
:100D4000010B066E06B011D0025002260336035086
:100D5000015C02E10250005C04E2D89003320232EE
:100D600004D0052A05C004F0EAD70350015C02E173
:100D70000250005C04E30250005E0350015AD89018
:100D80000332023204C005F004060550EEE101C052
:100D9000F3FF0050E4CF06F0E4CF05F0E4CF04F019
:100DA000E4CF03F0E4CF02F0E4CF01F0E4CF00F0B1
:100DB000E4CFD9FF1200D9CFE5FFE1CFD9FF00C0C2
:100DC000E5FF01C0E5FF02C0E5FF03C0E5FF04C089
:100DD000E5FF05C0E5FF06C0E5FF07C0E5FF020E21
:100DE000DBCF00F0030EDBCF01F0040EDBCF02F00F
:100DF000050EDBCF03F0046A056A100E066E01448F
:100E0000010B076E010E0716005000260136045034
:100E1000042605360750D8A404800350055C02E17F
:100E20000250045C05E30250045E0350055A008042
:100E3000062EE5D701C0F3FF0050E4CF07F0E4CF62
:100E400006F0E4CF05F0E4CF04F0E4CF03F0E4CF04
:100E500002F0E4CF01F0E4CF00F0E4CFD9FF1200BC
:100E6000D9CFE5FFE1CFD9FF00C0E5FF01C0E5FF25
:100E700002C0E5FF03C0E5FF020EDBCF00F0030E6A
:100E8000DBCF01F0040EDBCF02F0050EDBCF03F069
:100E900000500001B86F0150B96F02500001BA6FE5
:100EA0000350BB6F0001B8510001BA03F3CF00F04B
:100EB000F4CF01F000500001BC6F0150BD6F000184
:100EC000B8510001BB03F3CF00F00001B95100019C
:100ED000BA03F3CF01F0015000260001BD510026F6
:100EE0000050BD6FBDC0F3FFBC51E4CF03F0E4CFB1
:100EF00002F0E4CF01F0E4CF00F0E4CFD9FF12001C
:100F0000D9CFE5FFE1CFD9FF00C0E5FF01C0E5FF84
:100F100002C0E5FF03C0E5FF04C0E5FF020EDBCF22
:100F200000F0030EDBCF01F0040EDBCF02F0050E64
:100F3000DBCF03F0060EDBCF04F082940050E56EA9
:100F4000DEEC08F0006EE12A00C0E5FF02C0E9FF18
:100F500003C0F3FF04500AEC09F0022AD8B0032AB8
:100F6000D8B0042A0150E56EDEEC08F0006EE12AEC
:100F700000C0E5FF02C0E9FF03C0F3FF04500AEC24
:100F800009F08284E4CF04F0E4CF03F0E4CF02F070
:100F9000E4CF01F0E4CF00F0E4CFD9FF1200280E37
:100FA000F66E120EF76E000EF86E0900F550056E23
:100FB0000900F550066E055002E106503BE00900BD
:100FC000F550006E0900F550016E0900F550026EF3
:100FD00009000900F550E96E0900F550EA6E0900B4
:100FE00009000900F550036E0900F550046E090070
:100FF0000900F6CF07F0F7CF08F0F8CF09F000C0EE
:10100000F6FF01C0F7FF02C0F8FF035002E10450F1
:1010100007E00900F550EE6E0306F8E20406F9D782
:1010200007C0F6FF08C0F7FF09C0F8FF0506C4E2D5
:101030000606C5D71200D9CFE5FFE1CFD9FF00C022
:10104000E5FF01C0E5FF020EDBCF00F0016A0050B2
:10105000015C14E2808C000EE56E320EE56E1BEC36
:1010600006F0020EE126809C000EE56E320EE56E63
:101070001BEC06F0020EE126012AE9D7E4CF01F0CD
:10108000E4CF00F0E4CFD9FF1200D9CFE5FFE1CFE4
:10109000D9FF00C0E5FF01C0E5FF020EDBCF00F085
:1010A000030EDBCF01F082940050E56EDEEC08F019
:1010B000E12A0150E56EDEEC08F0E12A8284E4CFFB
:1010C00001F0E4CF00F0E4CFD9FF1200D9CFE5FF63
:1010D000E1CFD9FF00C0E5FF01C0E5FF020EDBCF85
:1010E00000F0030EDBCF01F0D89000360050B1ECD9
:1010F00005F0E4CF01F0E4CF00F0E4CFD9FF120017
:10110000D9CFE5FFE1CFD9FF00C0E5FF01C0E5FF82
:10111000020EDBCF00F0016A0050015C03E2000028
:10112000012AFAD7E4CF01F0E4CF00F0E4CFD9FFF1
:101130001200D9CFE5FFE1CFD9FF590EE56E820E3F
:10114000E56E45EC08F0020EE126280EE56E800EF5
:10115000E56E45EC08F0020EE126E4CFD9FF12005F
:10116000D9CFE5FFE1CFD9FFD80EE56E800EE56E51
:1011700045EC08F0020EE126390EE56E820EE56EB2
:1011800045EC08F0020EE126E4CFD9FF1200D9CFDA
:10119000E5FFE1CFD9FF680EE56E800EE56E45EC08
:1011A00008F0020EE126D90EE56E820EE56E45ECE2
:1011B00008F0020EE126E4CFD9FF1200D9CFE5FFF7
:1011C000E1CFD9FF00C0E5FF020EDBCFC9FF9EA62D
:1011D000FED7C9CF00F09E960050E4CF00F0E4CFD8
:1011E000D9FF1200D9CFE5FFE1CFD9FF020EDBCF47
:1011F000ADFFACA2FED7E4CFD9FF120017EEFFF08F
:1012000027EEFFF0F86AA68EA69CCFEC07F000EC64
:1012100002F0FFD7E8AE05D0F3CFEAFFE4CFEEFF50
:101220001200E8AC1200120001003612000080002B
:0E1230000000080000000000000000000000A8
:020000040030CA
:0E000000FFB8F9FEFF7D81FFFFFFFFFFFFFF4E
:00000001FF
